:020000040800F2
:1000000000500020F11700084118000841180008AE
:1000100041180008411800084118000800000000BD
:10002000000000000000000000000000411800086F
:1000300041180008000000004118000829100008BD
:10004000411800084118000841180008411800082C
:100050004118000841180008910A0008BD0A00086C
:10006000E90A0008150B00084118000841180008AB
:1000700041180008411800084118000841180008FC
:1000800041180008411800084118000841180008EC
:1000900041180008411800084118000841180008DC
:1000A00041180008411800084118000841180008CC
:1000B00041180008411800084118000841180008BC
:1000C00041180008411800084118000841180008AC
:1000D000411800084118000841180008411800089C
:1000E00041180008411800080000000041180008ED
:1000F000411800084118000841180008411800087C
:10010000411800084118000841180008411800086B
:10011000411800084118000841180008411800085B
:10012000411800084118000841180008411800084B
:1001300010B5054C237833B9044B13B10448AFF321
:1001400000800123237010BD80000020000000000B
:100150007029000808B5034B1BB103490348AFF3EE
:10016000008008BD00000000840000207029000805
:1001700080F0004002E000BF81F0004142001FBF5C
:100180005FEA410392EA030F7FEA226C7FEA236C65
:100190006AD04FEA1262D2EB1363C1BFD21841405A
:1001A00048404140B8BF5B42192B88BF704710F0F0
:1001B000004F40F4000020F07F4018BF404211F093
:1001C000004F41F4000121F07F4118BF494292EAFB
:1001D000030F3FD0A2F1010241FA03FC10EB0C0027
:1001E000C3F1200301FA03F100F0004302D54942B4
:1001F00060EB4000B0F5000F13D3B0F1807F06D361
:1002000040084FEA310102F10102FE2A51D2B1F158
:10021000004F40EBC25008BF20F0010040EA03004D
:100220007047490040EB0000013A28BFB0F5000FCD
:10023000EDD2B0FA80FCACF1080CB2EB0C0200FA83
:100240000CF0AABF00EBC25052421843BCBFD040D2
:100250001843704792F0000F81F4000106BF80F44C
:1002600000000132013BB5E74FEA41037FEA226C0F
:1002700018BF7FEA236C21D092EA030F04D092F0DA
:10028000000F08BF0846704790EA010F1CBF00200E
:10029000704712F07F4F04D1400028BF40F000406B
:1002A000704712F100723CBF00F50000704700F08B
:1002B000004343F0FE4040F4000070477FEA2262B2
:1002C00016BF08467FEA23630146420206BF5FEA83
:1002D000412390EA010F40F4800070474FF0000383
:1002E00004E000BF10F0004348BF40425FEA000C4A
:1002F00008BF704743F0964301464FF000001CE0F2
:1003000050EA010208BF70474FF000030AE000BF47
:1003100050EA010208BF704711F0004302D5404285
:1003200061EB41015FEA010C02BF844601460020F7
:1003300043F0B64308BFA3F18053A3F50003BCFA12
:100340008CF2083AA3EBC25310DB01FA02FC6344BF
:1003500000FA02FCC2F12002BCF1004F20FA02F2C6
:1003600043EB020008BF20F00100704702F12002B9
:1003700001FA02FCC2F1200250EA4C0021FA02F21A
:1003800043EB020008BF20EADC7070474FF0FF0C1F
:100390001CEAD0521EBF1CEAD15392EA0C0F93EA1A
:1003A0000C0F6FD01A4480EA010C400218BF5FEABC
:1003B00041211ED04FF0006343EA501043EA51112F
:1003C000A0FB01310CF00040B1F5000F3EBF490029
:1003D00041EAD3715B0040EA010062F17F02FD2A2D
:1003E0001DD8B3F1004F40EBC25008BF20F0010010
:1003F000704790F0000F0CF0004C08BF49024CEA27
:10040000502040EA51207F3AC2BFD2F1FF0340EAB8
:10041000C250704740F400004FF00003013A5DDC29
:1004200012F1190FDCBF00F000407047C2F100026A
:10043000410021FA02F1C2F1200200FA02FC5FEA57
:10044000310040F1000053EA4C0308BF20EADC70A1
:10045000704792F0000F00F0004C02BF400010F413
:10046000000F013AF9D040EA0C0093F0000F01F0C0
:10047000004C02BF490011F4000F013BF9D041EAE2
:100480000C018FE70CEAD15392EA0C0F18BF93EAE4
:100490000C0F0AD030F0004C18BF31F0004CD8D10E
:1004A00080EA010000F00040704790F0000F17BF95
:1004B00090F0004F084691F0000F91F0004F14D0DB
:1004C00092EA0C0F01D142020FD193EA0C0F03D133
:1004D0004B0218BF084608D180EA010000F0004036
:1004E00040F0FE4040F40000704740F0FE4040F411
:1004F000400070474FF0FF0C1CEAD0521EBF1CEAB0
:10050000D15392EA0C0F93EA0C0F69D0A2EB0302CD
:1005100080EA010C49024FEA402037D04FF0805367
:1005200043EA111143EA10130CF000408B4238BF2C
:100530005B0042F17D024FF4000C8B4224BF5B1A3A
:1005400040EA0C00B3EB510F24BFA3EB510340EA88
:100550005C00B3EB910F24BFA3EB910340EA9C0036
:10056000B3EBD10F24BFA3EBD10340EADC001B01A6
:1005700018BF5FEA1C1CE0D1FD2A3FF650AF8B424A
:1005800040EBC25008BF20F0010070470CF0004C57
:100590004CEA50207F32C2BFD2F1FF0340EAC25082
:1005A000704740F400004FF00003013A37E792F043
:1005B000000F00F0004C02BF400010F4000F013AA1
:1005C000F9D040EA0C0093F0000F01F0004C02BF9C
:1005D000490011F4000F013BF9D041EA0C0195E705
:1005E0000CEAD15392EA0C0F08D142027FF47DAF9E
:1005F00093EA0C0F7FF470AF084676E793EA0C0F8E
:1006000004D14B023FF44CAF08466EE730F0004C8B
:1006100018BF31F0004CCAD130F000427FF45CAF1B
:1006200031F000437FF43CAF5FE700BF42000ED2E1
:10063000B2F1FE4F0BD34FF09E03B3EB126209D41D
:100640004FEA002343F0004323FA02F070474FF0D3
:100650000000704712F1610F01D1420202D14FF048
:10066000FF3070474FF00000704700BF80B582B088
:1006700000AF0346FB7100220421012000F038FB8B
:1006800000220521012000F033FBFB799BB21A46C2
:100690000121002000F0C2FB01220621012000F010
:1006A00027FB00220621012000F022FB4FF47A7183
:1006B000052000F07DFC00BF0837BD4680BD80B539
:1006C00082B000AF0346FB7101220421012000F03B
:1006D0000FFB00220521012000F00AFBFB799BB2F1
:1006E0001A460121002000F099FB01220621012079
:1006F00000F0FEFA00220621012000F0F9FA4FF482
:100700007A71052000F054FC00BF0837BD4680BD5B
:1007100080B500AF02220421012000F011FA02226C
:100720000521012000F00CFA02220621012000F030
:1007300007FA02220121002000F03CFB4FF47A71FD
:100740001F2000F035FC3820FFF790FF0E492820CD
:1007500000F02EFC0C20FFF789FF0B49282000F049
:1007600027FC0120FFF782FF4FF47A71012000F08F
:100770001FFC0620FFF77AFF4FF47A71022000F089
:1007800017FC00BF80BD00BF40420F0080B582B0A3
:1007900000AF03460A46FB711346BB71FB79002B81
:1007A00016D0FB79102B13D8BB79012B02D0022B6A
:1007B00007D00DE0FB797F33DBB21846FFF756FF19
:1007C00006E0FB79413BDBB21846FFF74FFF00BF65
:1007D00000BF0837BD4680BD80B500AF0120FFF7E0
:1007E00045FF4FF47A71022000F0E2FB00BF80BDAC
:1007F00080B584B000AF78600023FB7309E0FB7B19
:100800007A6813441B781846FFF759FFFB7B0133C6
:10081000FB73FB7B7A6813441B78002BEFD100BF7E
:1008200000BF1037BD4680BD80B584B000AF786092
:100830000123FB607B68002B02D13020FFF73FFFD4
:100840007B68002B23DA2D20FFF739FF7B685B42A2
:100850007B601CE0FA6813469B0013445B0018465B
:100860007A681C4B83FB02139910D317C91A0B46E5
:100870009B000B445B00D11A0B460344FB607B6872
:10088000144A82FB03129210DB17D31A7B607B6839
:10089000002BDFD115E0F9680F4BA3FB0123DA0829
:1008A00013469B0013445B00CA1AD3B23033DBB249
:1008B0001846FFF704FFFB68074AA2FB0323DB0887
:1008C000FB60FB68012BE6D100BF00BF1037BD46BF
:1008D00080BD00BF67666666CDCCCCCC80B500AF6E
:1008E00002220021002000F065FA022201210120ED
:1008F00000F060FA00BF80BD80B584B000AF7860C2
:100900000023FB7321E0FF220121012000F086FA81
:10091000FB7B7A6813441B781A460021002000F004
:100920007DFAFB7B012202FA03F39BB2DB439BB20D
:100930001A460121012000F071FA4FF47A7101206A
:1009400000F036FBFB7B0133FB73FB7B072BDAD913
:1009500000BF00BF1037BD4680BD000080B485B029
:1009600000AF3B600346FB710B46BB7113467B71C6
:10097000FB799B08FB73FB7903F00303DBB29B005D
:10098000BB73404AFB7B023352F82320BB7B0F2111
:1009900001FA03F3DB4318463A49FB7B024002337A
:1009A00041F82320374AFB7B023352F82320B979E0
:1009B000BB7B01FA03F318463249FB7B0243023347
:1009C00041F823207B79022B32D0022B45DC002B0F
:1009D00002D0012B16D040E02B4B9B68FA79012105
:1009E00001FA02F21146284A0B439360264BDB685A
:1009F000FA79012101FA02F2D2431146224A0B4050
:100A0000D3602AE0204BDB68FA79012101FA02F277
:100A100011461D4A0B43D3601B4B9B68FA79012199
:100A200001FA02F2D2431146174A0B40936014E0D8
:100A3000154B9B68FA79012101FA02F21146124A1C
:100A40000B439360104BDB68FA79012101FA02F243
:100A500011460D4A0B43D36000BFFB790B493A683E
:100A600041F82320084B1B68FA79012101FA02F2B0
:100A70001146054A0B43136000BF1437BD4680BCC6
:100A8000704700BF00000140000401409C000020AE
:100A900080B500AF074B1B68002B02D0054B1B68CD
:100AA0009847054B5B69044A43F00203536100BF5A
:100AB00080BD00BF9C0000200004014080B500AF55
:100AC000074B5B68002B02D0054B5B689847054BD2
:100AD0005B69044A43F00203536100BF80BD00BF5D
:100AE0009C0000200004014080B500AF074B9B68CC
:100AF000002B02D0054B9B689847054B5B69044A65
:100B000043F00203536100BF80BD00BF9C00002082
:100B10000004014080B500AF074BDB68002B02D01A
:100B2000054BDB689847054B5B69044A43F00203B9
:100B3000536100BF80BD00BF9C0000200004014045
:100B400080B483B000AF0346FB710B46BB71134604
:100B50007B71FB79022B7AD0022B00F3B180002B42
:100B600002D0012B3AD0ABE0BB79072B17D85A4BF8
:100B70001B68BA7992000F2101FA02F2D2431146A2
:100B8000554A0B401360544B1B687979BA7992002F
:100B900001FA02F21146504A0B43136092E0BB790E
:100BA0000F2B00F28F80BB79083BBB714B4B1B684E
:100BB000BA7992000F2101FA02F2D2431146474A54
:100BC0000B401360454B1B687979BA79920001FAA2
:100BD00002F21146414A0B43136073E0BB79072BC5
:100BE00017D83F4B1B68BA7992000F2101FA02F225
:100BF000D24311463A4A0B401360394B1B6879794E
:100C0000BA79920001FA02F21146354A0B43136099
:100C10005AE0BB790F2B57D8BB79083BBB71314BDE
:100C20001B68BA7992000F2101FA02F2D2431146F1
:100C30002C4A0B4013602B4B1B687979BA799200D0
:100C400001FA02F21146274A0B4313603CE0BB79DC
:100C5000072B17D8244B1B68BA7992000F2101FA91
:100C600002F2D2431146204A0B4013601E4B1B6810
:100C70007979BA79920001FA02F211461A4A0B43C5
:100C8000136023E0BB790F2B20D8BB79083BBB71E5
:100C9000164B1B68BA7992000F2101FA02F2D24377
:100CA0001146124A0B401360104B1B687979BA79D0
:100CB000920001FA02F211460C4A0B43136005E060
:100CC00000BF04E000BF02E000BF00E000BF00BFC3
:100CD0000C37BD4680BC7047000801400408014045
:100CE000000C0140040C01400010014004100140C0
:100CF00080B483B000AF0346FB710B46BB71134653
:100D00007B71FB79022B2AD0022B3ADC002B02D01C
:100D1000012B12D035E07B79012B05D1BB79012263
:100D20009A401E4B1A602EE07B79002B2BD1BB79A9
:100D300001229A401A4B1A6025E07B79012B05D1DC
:100D4000BB7901229A40174B1A601EE07B79002B79
:100D50001BD1BB7901229A40134B1A6015E07B79B5
:100D6000012B05D1BB7901229A40104B1A600EE08D
:100D70007B79002B0BD1BB7901229A400C4B1A6076
:100D800005E000BF04E000BF02E000BF00E000BFDC
:100D900000BF0C37BD4680BC704700BF1008014043
:100DA00014080140100C0140140C014010100140C7
:100DB0001410014080B584B000AF0346FB710B46B0
:100DC000BB711346BB80BB79002B10D10023FB7392
:100DD00009E0BB88DAB2F97BFB791846FFF7B0FE71
:100DE000FB7B0133FB73FB7B072BF2D912E0BB7952
:100DF000012B0FD10823BB7309E0BB88DAB2B97BA2
:100E0000FB791846FFF79CFEBB7B0133BB73BB7BB2
:100E10000F2BF2D900BF1037BD4680BD80B483B020
:100E200000AF0346FB710B46BB711346BB80BB7919
:100E3000002B19D1FB79002B02D0012B0AD030E016
:100E40001A4B1B6803F47F42BB88DBB2174913437C
:100E50000B6026E0164B1B6803F47F42BB88DBB2B5
:100E6000134913430B601CE0BB79012B19D1FB79AB
:100E7000002B02D0012B0AD013E00C4B1B68DAB216
:100E8000BB881B029BB2094913430B6009E0084B66
:100E90001B68DAB2BB881B029BB2054913430B6087
:100EA00000BF00BF0C37BD4680BC70470C08014036
:100EB0000C0C014080B400AF034B044A1A6000BF21
:100EC000BD4680BC704700BF0CED00E00005FA0590
:100ED00080B483B000AF0346FB71FB7903F01F03BE
:100EE000012202FA03F1054AFB795B09DBB242F801
:100EF000231000BF0C37BD4680BC704700E100E006
:100F000080B400AF094B1B68084A43F0010313602B
:100F1000074B1B68064A23F003031360044B044A83
:100F20001B68136000BFBD4680BC704700100240C4
:100F30000410024080B483B000AF03460A46FB7140
:100F40001346BB71FB79022B1CD0022B25DC002B36
:100F500002D0012B0BD020E0124B1B68BA79012183
:100F600001FA02F211460F4A0B43136015E00E4BD3
:100F70001B68BA79012101FA02F211460A4A0B43B1
:100F800013600AE0094B1B68BA79012101FA02F2E9
:100F90001146064A0B43136000BF00BF0C37BD4625
:100FA00080BC7047141002401C1002401810024010
:100FB00080B584B000AF78603960194A3B68B2FBF5
:100FC000F3F31846FFF78AF90346FB607868FFF7EA
:100FD00085F90346F9681846FFF7D8F9034618461D
:100FE000FFF724FB0346BB600E4ABB6823F07F4338
:100FF00053600C4B1B680B4A43F00103136000BFA6
:10100000084B1B6803F48033002BF9D0054B1B6899
:10101000044A23F00103136000BF1037BD4680BDB2
:1010200040420F0010E000E080B582B000AF0A4BF4
:101030001B689847094B1B687B60094B1B78002B8A
:1010400005D1064B1B68054A23F00103136000BF5E
:101050000837BD4680BD00BFDC00002010E000E086
:10106000E0000020B0B485B000AF78600823013BF9
:10107000BB600823DBB200221C4615464FF000027D
:101080004FF00003EB0043EA5473E2000023FB73CC
:101090002FE097F90F301C4A0021D1540723BB736E
:1010A0001DE097F90F30184AD35C5B005AB297F9EC
:1010B0000E30082101FB03F37968194497F90F30CA
:1010C000CB5C5BB213435AB297F90F30D1B20E4AE0
:1010D000D15497F90E30DBB2013BDBB2BB7397F909
:1010E0000E30002BDDDA97F90F30DBB20133DBB2C3
:1010F000FB7397F90F30072BCBDD00BF00BF143710
:10110000BD46B0BC704700BF2401002080B483B04E
:1011100000AF954B93F900301846934B93F901308B
:101120001946924AC30013440B4400221A708E4B96
:101130009B78002B10D18C4B93F90030002B07D0FB
:10114000894B93F90030DBB2013BDBB25BB200E0CC
:101150000723854A13703DE0834B9B78012B10D108
:10116000814B93F90030072B07D07F4B93F9003068
:10117000DBB20133DBB25BB200E000237A4A1370CA
:1011800028E0794B9B78022B10D1774B93F90130F3
:10119000072B07D0744B93F90130DBB20133DBB27C
:1011A0005BB200E00023704A537013E06E4B9B78F3
:1011B000032B0FD16C4B93F90130002B07D06A4BF6
:1011C00093F90130DBB2013BDBB25BB200E00723F5
:1011D000654A53700023FB711AE0634B93F90020BA
:1011E000FB79634911F913309A420ED15E4B93F9A2
:1011F0000120FB795E495B000B4493F901309A4270
:1012000003D15C4B00221A70A9E0FB790133FB711A
:10121000574B93F83C30FA799A42DED3544B93F80B
:101220003C30002B32D0524B93F83C30BB711FE066
:1012300097F906305A1E97F906304D4911F91210E8
:101240004B4A02F8131097F90630013B97F9062034
:1012500047495B000B4493F90100454953000B4497
:1012600002465A7097F90630DBB2013BDBB2BB7124
:1012700097F90630002BDBDC3B4B93F900203C4B0D
:101280001A70394B93F90120394B5A70364B93F948
:101290000020394B93F900309A4218D1324B93F920
:1012A0000120354B93F901309A4210D1334B002283
:1012B0001A702F4B93F83C301C2B24D82C4B93F8EE
:1012C0003C300133DAB22A4B83F83C201BE0284B38
:1012D00093F83C30002B16D0254B93F83C301A463F
:1012E000234B13F912301846214B93F83C30204A17
:1012F0005B00134493F9013019461C4AC3001344A0
:101300000B4400221A70184B93F900301846164B04
:1013100093F901301946154AC30013440B440122C6
:101320001A7000237B7114E07B79114A12F9133093
:1013300018467B790E4A5B00134493F90130194635
:101340000A4AC30013440B4401221A707B7901330B
:101350007B71074B93F83C307A799A42E4D30C378F
:10136000BD4680BC704700BF20000020E400002084
:101370003401002000000020300100202C0100205A
:1013800080B500AF1F4B1B78002B39D100F088FAD5
:1013900003465A4203F0070302F0070258BF5342C4
:1013A0005AB2194B1A7000F07BFA03465A4203F006
:1013B000070302F0070258BF53425AB2124B5A7049
:1013C000114B93F9003018460F4B93F90130194631
:1013D0000E4AC30013440B441B78012BD6D00A4B92
:1013E00093F900301846084B93F901301946074A23
:1013F000C30013440B4401221A70024B01221A70DD
:1014000000BF80BD2C01002030010020E40000203E
:1014100080B584B000AFFFF773FDFFF74BFD0620EA
:10142000FFF756FD0720FFF753FD0820FFF750FD9B
:101430000920FFF74DFD02210220FFF77BFD03216C
:101440000220FFF777FDFFF749FAFFF761F9012165
:101450000420FFF79BF97F48FFF7CAF90221042017
:10146000FFF794F97C48FFF7C3F90023FB6002E023
:10147000FB680133FB60FB68784A9342F8DDFFF7B5
:10148000ABF9774B9B78002B15D101210120FFF799
:101490007DF97448FFF7ACF901210C20FFF776F9CC
:1014A0007148FFF7A5F901210E20FFF76FF96F488A
:1014B000FFF79EF94CE06A4B9B78022B15D1012176
:1014C0000120FFF763F96748FFF792F901210C202B
:1014D000FFF75CF96648FFF78BF901211020FFF751
:1014E00055F96448FFF784F932E05D4B9B78032B94
:1014F00015D101210120FFF749F95A48FFF778F982
:1015000001210C20FFF742F95B48FFF771F9012137
:101510001020FFF73BF95948FFF76AF918E0504BE4
:101520009B78012B14D101210120FFF72FF94D48A1
:10153000FFF75EF901210C20FFF728F95048FFF76B
:1015400057F901211020FFF721F94C48FFF750F916
:10155000002000F0F1FA02460B461346184600F050
:1015600071F9484B012283F83C203D4B93F9003040
:1015700018463B4B93F901301946434AC3001344C4
:101580000B4401221A7042E0FFF7C0FD3E48FFF70E
:1015900069FDFFF7F5FE02210120FFF7F7F83B4850
:1015A000FFF726F902210D20FFF7F0F8354B93F8ED
:1015B0003C301846FFF738F902210E20FFF7E6F815
:1015C0002A48FFF715F90023FB7205E03048FFF7C2
:1015D00093F9FB7A0133FB72FB7A0E2BF6D92D4B74
:1015E000002201210020FFF7B9F92B4B0022012135
:1015F0000120FFF7B3F9294B002201210220FFF758
:10160000ADF9274B002201210320FFF7A7F9254B55
:101610001B78002BB8D1FFF7DFF800237B6002E0D6
:101620007B6801337B607B68312BF9DD012107206A
:10163000FFF7ACF81C48FFF7DBF802210620FFF7A4
:10164000A5F81A48FFF7D4F8002318461037BD460E
:1016500080BD00BF88290008942900089F860100EA
:1016600020000020A029000804000020AC29000868
:1016700008000020B029000810000020B42900084C
:101680001800002034010020E4000020B8290008E0
:1016900024010020B11600080117000851170008A6
:1016A000A117000800000020C8290008D029000860
:1016B00080B500AF0E4B9B78012B17D00C4B00224E
:1016C0009A7001210120FFF761F80A48FFF790F8AE
:1016D00001210C20FFF75AF80748FFF789F801218C
:1016E0000E20FFF753F80548FFF782F800BF80BDD2
:1016F00020000020A029000804000020AC290008D8
:1017000080B500AF0E4B9B78032B17D00C4B0222F9
:101710009A7001210120FFF739F80A48FFF768F8AD
:1017200001210C20FFF732F80748FFF761F801218B
:101730001020FFF72BF80548FFF75AF800BF80BDCF
:1017400020000020A029000808000020B02900087F
:1017500080B500AF0E4B9B78022B17D00C4B0322A9
:101760009A7001210120FFF711F80A48FFF740F8AD
:1017700001210C20FFF70AF80748FFF739F801218B
:101780001020FFF703F80548FFF732F800BF80BDCF
:1017900020000020A029000810000020B429000823
:1017A00080B500AF0E4B9B78002B17D00C4B01225D
:1017B0009A7001210120FEF7E9FF0A48FFF718F8A7
:1017C00001210C20FEF7E2FF0748FFF711F8012185
:1017D0001020FEF7DBFF0548FFF70AF800BF80BDC9
:1017E00020000020A029000818000020B4290008CB
:1017F0000D488546AFF300800C480D490D4A002383
:1018000002E0D458C4500433C4188C42F9D30A4AB5
:101810000A4C002301E013600432A242FBD300F023
:10182000FFF9FFF7F5FDFEE7005000200000002063
:1018300080000020C02A000880000020C402002090
:10184000FEE7000038B5104B04461D682B6BB3B99A
:10185000182000F073FA0246286320B946210B4B8A
:101860000B4800F005FA0B490B4BC0E900130B4B7A
:10187000002183600B2383810120C2E9040100223F
:101880002B6B1C615A6138BD30000020D82900083C
:10189000EF2900080E33CDAB34126DE6ECDE050007
:1018A000164B10B51C68236BB3B9182000F046FA2C
:1018B0000246206320B95221114B124800F0D8F99A
:1018C0001149124BC0E90013114B002183600B2317
:1018D00083810120C2E90401216B0E480B694C6928
:1018E00058430D4A02FB0400A3FB0232013340EBD4
:1018F0000200C1E9043020F0004010BD300000209B
:10190000D8290008EF2900080E33CDAB34126DE65C
:10191000ECDE05002DF451582D7F954C002310B5B9
:101920000446C0E90033C0E9043383608181436623
:10193000C2818361194608225C3000F0F4F80D4B37
:10194000246263620C4BA3620C4BE3620C4B236377
:101950000C4B9C4206D003F16802944202D0D03373
:101960009C4205D104F15800BDE8104000F07CB95C
:1019700010BD00BFA11A0008C31A0008FB1A000816
:101980001F1B000874010020024A0349034800F0AD
:1019900069B800BF24000020A91F000834000020FF
:1019A00041680C4B10B59942044601D000F0FCFA96
:1019B000A168094B994202D0204600F0F5FAE1688F
:1019C000064B994204D02046BDE8104000F0ECBA26
:1019D00010BD00BF74010020DC0100204402002083
:1019E00010B50B4B0B4C0C4A20461A600421002208
:1019F000FFF794FF04F1680001220921FFF78EFF31
:101A000004F1D0000222BDE810401221FFF786BF8A
:101A1000AC0200207401002089190008014800F080
:101A200024B900BFB5020020014800F01FB900BF73
:101A3000B502002010B50446FFF7F0FF236A1BB182
:101A4000BDE81040FFF7F0BF044B2362044B1B6856
:101A5000002BF5D1FFF7C4FFF2E700BFA119000882
:101A6000AC0200202DE9F8430746884614460026BC
:101A7000D4E90195B9F1010905D52468002CF7D105
:101A80003046BDE8F883AB89012B07D9B5F90E3094
:101A9000013303D029463846C04706436835E9E795
:101AA00010B50C46B1F90E1000F096F80028ABBF47
:101AB000636DA3891B1823F48053ACBF6365A381B6
:101AC00010BD2DE9F0411F468B890546DB050C460C
:101AD000164605D502230022B1F90E1000F06AF86F
:101AE000A389324623F48053A38128463B46B4F9A8
:101AF0000E10BDE8F04100F081B810B50C46B1F908
:101B00000E1000F057F8431CA38915BF606523F43D
:101B1000805343F48053A38118BFA38110BDB1F952
:101B20000E1000F025B803460244934200D17047DE
:101B300003F8011BF9E70000DFB54FF0FF364FF067
:101B4000FF370A4B0446002269461868CDE9006752
:101B500000F01EF8002801DACDE90067DDE9000198
:101B60000CB1C4E9000104B0D0BD00BF30000020BA
:101B700038B50023054D044608462B6000F0A0FE52
:101B8000431C02D12B6803B1236038BDB002002092
:101B900038B50023064D0446084611462B6000F078
:101BA000A7FE431C02D12B6803B1236038BD00BFE0
:101BB000B002002038B50446084611460022054D03
:101BC0002A601A4600F0ACFE431C02D12B6803B118
:101BD000236038BDB002002038B5044608461146DF
:101BE0000022054D2A601A4600F0A2FE431C02D1D5
:101BF0002B6803B1236038BDB002002038B504461D
:101C0000084611460022054D2A601A4600F0A6FE3D
:101C1000431C02D12B6803B1236038BDB002002001
:101C200070B500260C4D0D4C641BA410A64209D1C2
:101C300000F09EFE00260A4D0A4C641BA410A6422A
:101C400005D170BD55F8043B98470136EEE755F8CD
:101C5000043B98470136F2E7B82A0008B82A000882
:101C6000B82A0008BC2A0008704770477047000077
:101C70001FB514461A46094B05461B68D86854B967
:101C8000074B1C46CDE9013400912B46054900F075
:101C9000B3F900F0D3F9044BF4E700BF30000020A3
:101CA000822A0008542A0008472A000838B5054649
:101CB000002940D051F8043C0C1F002BB8BFE41899
:101CC00000F0E6F81C4A136833B9636014602846D4
:101CD000BDE8384000F0E2B8A34208D920682118D6
:101CE0008B4201BF19685B6809182160EDE71A464D
:101CF0005B680BB1A342FAD911685018A0420BD10E
:101D000020680144501883421160E0D118685B6874
:101D1000084410605360DAE702D90C232B60D6E741
:101D2000206821188B4201BF19685B68091821607F
:101D300063605460CBE738BDBC020020024B014613
:101D4000186800F025B800BF3000002070B50F4EB5
:101D50000C463168054611B900F060F93060214643
:101D6000284600F05BF9431C03D14FF0FF342046B6
:101D700070BDC41C24F00304A042F8D0211A2846E8
:101D800000F04CF90130F2D1EFE700BFB8020020BB
:101D90002DE9F843CD1C25F0030508350C2D38BF7F
:101DA0000C25002D064601DBA94204D90C23336023
:101DB0000020BDE8F883DFF8D48000F069F8D8F897
:101DC00000301C4644BB29463046FFF7BFFF431C8A
:101DD000044658D1D8F800402746002F43D1002CA4
:101DE0004BD023683946304604EB030900F016F95E
:101DF000814542D1216830466D1A2946FFF7A6FF7A
:101E000001303AD023682B442360D8F800305A6858
:101E100062BBC8F800700FE02268521B20D40B2A66
:101E200017D96119A342256018BF5960636808BFBC
:101E3000C8F8001062514B60304600F02FF804F1F2
:101E40000B00231D20F00700C21A1CBF1B1AA35051
:101E5000AFE76268A3420CBFC8F800205A60EBE706
:101E600023466468AEE73C467F68B6E71A465B687F
:101E7000A342FBD100235360DEE70C2330463360DE
:101E800000F00CF894E70560D6E700BFBC02002024
:101E90000148FFF7EABE00BFB40200200148FFF787
:101EA000E5BE00BFB4020020B1F90C20F8B516075A
:101EB00005460C4654D44B68002B02DC0B6C002BFF
:101EC00048DDE66A002E45D0002312F480522F68C8
:101ED000216A2B6030D0626DA389590705D56368EC
:101EE000D21A636B0BB1236CD21A00232846E66A20
:101EF000216AB047431CA38906D129681D292BD824
:101F0000284A0A41D60727D4002262602269D904F0
:101F1000226004D5421C01D12B6803B96065616B56
:101F20002F60B9B104F14403994202D02846FFF76B
:101F3000BDFE002363630DE001232846B04702463F
:101F4000501CC9D12B68002BC6D01D2B01D0162BDD
:101F50001DD12F60002021E043F040031BB21AE0A6
:101F60000F69002FF6D0930718BF00230E6808BF33
:101F70004B69F61B0F608B60002EEBDD33463A4653
:101F80002846216AD4F828C0E047002807DCB4F9C5
:101F90000C3043F040034FF0FF30A381F8BD0744FD
:101FA000361AE9E7FEFFBFDF38B50B6905460C4678
:101FB00013B90025284638BD18B1036A0BB9FFF7DD
:101FC00039FDB4F90C30002BF3D0626ED00704D485
:101FD000990502D4A06DFFF748FE28462146FFF779
:101FE00063FF636E0546DA07E4D4A3899B05E1D459
:101FF000A06DFFF73BFEDDE70EB403B5014603AB72
:10200000054853F8042B0068019300F045F802B02E
:102010005DF804EB03B070473000002038B50023B2
:10202000054D044608462B6000F08AFC431C02D193
:102030002B6803B1236038BDB0020020062008B52C
:1020400000F090FB012000F091FC936810B4013B7C
:10205000002B936007DA9469A34201DB0A2902D1BD
:1020600010BC00F0C3BA1368581C10601970084601
:1020700010BC7047F8B506460F461446D518AC425A
:1020800001D1002007E03A46304614F8011BFFF763
:10209000DCFF431CF3D1F8BD2DE9F04F0D4614468B
:1020A000984606469DB018B1036A0BB9FFF7C2FC0B
:1020B0006B6ED90705D4AB899A0502D4A86DFFF7DA
:1020C000D4FDAB891B0701D52B699BB92946304646
:1020D00000F0CAFA70B16B6EDC0704D54FF0FF3028
:1020E0001DB0BDE8F08FAB899805F7D4A86DFFF758
:1020F000BDFDF3E70023099320238DF82930302319
:102100004FF00109CDF80C80DFF8A8818DF82A3056
:1021100023469A4613F8012B0AB1252AF9D1BAEBC6
:10212000040B0BD05B46224629463046FFF7A2FF40
:10213000013000F0A780099A5A4409929AF80030B9
:10214000002B00F09F8000234FF0FF32CDE90523E4
:102150000AF1010A049307938DF853301A935446F9
:10216000052214F8011B534800F018FB049AD8B953
:10217000D10644BF20238DF85330130744BF2B23CF
:102180008DF853309AF800302A2B15D05446002091
:102190004FF00A0C079A214611F8013B303B092BFE
:1021A0004BD9B0B1079214E0A0EB080309FA03F38E
:1021B0001343A2460493D2E7039B191D1B680391A6
:1021C000002BBBBF5B4242F0020207930793B8BFEC
:1021D000049223782E2B0AD163782A2B32D1039BC9
:1021E00002341A1D1B68039243EAE3730593DFF878
:1021F000C8A003225046217800F0D0FA38B140221E
:10220000049BA0EB0A00824013430134049314F8AA
:10221000011B062229488DF8281000F0BFFA00287B
:102220003FD0274B1BBB039B073323F00703083327
:102230000393099B3B4409936AE70C4601200CFB7E
:102240000232A8E700234FF00A0C19460134059327
:10225000204610F8012B303A092A03D9002BC6D0AA
:102260000591C4E7044601230CFB0121F0E703AB11
:1022700000932A463046134B04A9AFF3008007466B
:10228000781CD6D16B6ED90705D4AB899A0502D4D8
:10229000A86DFFF7EBFCAB895B063FF51FAF099814
:1022A0001EE703AB00932A463046064B04A900F014
:1022B0007DF8E4E7832A0008892A00088D2A0008AF
:1022C00000000000752000082DE9F04716469846EA
:1022D0008A680B6907469342B8BF1346336091F88A
:1022E00043200C46DDF820900AB1013333602368A7
:1022F000990642BF336802333360256815F006053E
:1023000006D104F1190AE36832689B1AAB422BDC50
:1023100094F843302268003B18BF0123920630D462
:102320004146384604F14302C847013023D02368B0
:10233000226903F00603042B14BF002533684FF015
:10234000000608BFE56804F11A0408BFED1A54F846
:10235000123C08BF25EAE5759342C4BF9B1AED18ED
:10236000B5421AD1002008E00123524641463846C2
:10237000C847013003D14FF0FF30BDE8F087013589
:10238000C1E73020E11881F843005A1C94F8451049
:102390002244023382F84310C2E701232246414619
:1023A0003846C8470130E6D00136D9E72DE9FF4766
:1023B0000F7E9146782F80460C469A460C9E01F17E
:1023C000430207D8622F0AD8002F00F0D380582F7D
:1023D00000F0BA8004F1420684F842703AE0A7F1B6
:1023E0006303152BF6D801A151F823F0452400080A
:1023F00059240008D5230008D5230008D523000858
:10240000D523000859240008D5230008D523000847
:10241000D5230008D52300085B2500088324000885
:1024200015250008D5230008D52300087D250008C0
:10243000D523000883240008D5230008D5230008ED
:102440001D25000833681A1D1B68326004F142061E
:1024500084F8423001239EE033682068191D316002
:10246000060601D51D6803E04506FBD5B3F900500B
:10247000002D03DA2D236D4284F843300A23594896
:1024800011E021683368080653F8045B02D449065A
:1024900048BFADB26F2F336014BF0A2308235148E1
:1024A000002184F843106668002EA8BF2168A6604A
:1024B000A4BF21F0040121600DB9002E4BD01646B7
:1024C000B5FBF3F103FB1157C75D06F8017D2F46FD
:1024D000BB420D46F4D9082B0BD12368DF0708D582
:1024E000236961689942DEBF302306F8013C06F19A
:1024F000FF36921B22614B4621464046CDF800A094
:1025000003AAFFF7E1FE01304AD14FF0FF3004B0DB
:10251000BDE8F087236843F0200323607827324822
:1025200084F84570236831681F0651F8045B02D4B3
:102530005F0648BFADB23160D90744BF43F0200306
:1025400023601DB11023ABE72648E9E7236823F099
:1025500020032360F6E71646BDE733682568181D9B
:10256000616930602E061B6801D5196002E06806BB
:10257000FBD51980002316462361BCE73368002190
:102580001A1D32601E686268304600F007F908B113
:10259000801B606063682361002384F84330AAE7EE
:1025A0003246494640462369D0470130ADD02368C2
:1025B0009B0713D4E068039B9842B8BF1846A6E770
:1025C0000123324649464046D04701309DD001356F
:1025D000E36803995B1AAB42F2DCEBE7002504F1F8
:1025E0001906F5E7942A0008A52A0008F8B50E4652
:1025F0001446054618B1036A0BB9FFF71BFAA36925
:10260000A360A3891A0701D5236943B92146284647
:1026100000F02AF818B14FF0FF373846F8BD2368AC
:102620002269F6B2981A63693746834205DC21466F
:102630002846FFF7B9FC0028EDD1A368013BA36051
:1026400023685A1C22601E706269431C9A4204D09F
:10265000A389DB07E1D50A2EDFD121462846FFF703
:10266000A3FC0028D9D0D6E738B5294B0546186811
:102670000C4618B1036A0BB9FFF7DCF9B4F90C305A
:10268000190722D4DA0607D409222A6043F040034E
:102690004FF0FF30A38133E0580712D5616B41B191
:1026A00004F14403994202D02846FFF7FFFA0023C1
:1026B0006363A38923F02403A38100236360236958
:1026C0002360A38943F00803A38123694BB9A3893D
:1026D00003F42073B3F5007F03D02146284600F0B1
:1026E00090F8B4F90C3013F001020AD00022A26075
:1026F00062695242A261226942B913F08000C5D1D9
:1027000038BD990758BF6269A260F4E70020F7E777
:10271000300000201F2938B505460C4604D9162381
:1027200003604FF0FF3038BDC26B12B152F8213058
:102730004BB9284600F030F8224601462846BDE84D
:10274000384000F017B8012B0AD0591C03D11623CA
:1027500003600120E7E70021204642F82410984753
:102760000020E0E7024B01461868FFF7D3BF00BF27
:102770003000002038B50023064D044608461146B7
:102780002B6000F0C5F8431C02D12B6803B1236015
:1027900038BD00BFB002002000F0A2B8034610B55B
:1027A000C9B202449342184601D1002003E00478E4
:1027B00001338C42F6D110BD70B50C46B1F90E1044
:1027C000154600291E4696B00CDAA389002113F0A5
:1027D000800F14BF40234FF48063002031602B60D2
:1027E00016B070BD6A4600F049F80028EDDB01998B
:1027F00001F47041A1F50053594259414FF48063EF
:10280000EBE78B89F7B59D0706460C4607D504F123
:102810004703236023610123636103B0F0BD6A466F
:1028200001ABFFF7C9FF009F054639463046FFF769
:10283000AFFA48B9B4F90C309A05EED423F003038B
:1028400043F00203A381E2E7A389C4E9040743F04C
:102850008003A381019B20605BB13046B4F90E1068
:1028600000F01EF828B1A38923F0030343F001030D
:10287000A381A3891D43A581CFE7000038B50023BC
:10288000064D0446084611462B6000F021F8431C13
:1028900002D12B6803B1236038BD00BFB002002015
:1028A00038B50023054D044608462B6000F028F893
:1028B000431C02D12B6803B1236038BDB002002055
:1028C0005822024B4FF0FF301A607047B0020020D0
:1028D0005822024B4FF0FF301A607047B0020020C0
:1028E0005822024B4FF0FF301A607047B0020020B0
:1028F0005822024B4FF0FF301A607047B0020020A0
:102900005822024B00201A60704700BFB00200201E
:102910005822024B4FF0FF301A607047B00200207F
:102920005822024B4FF0FF301A607047B00200206F
:102930005822024B4FF0FF301A607047B00200205F
:10294000044A0346116809B9034911601068034439
:1029500013607047C0020020C80200205822024BBA
:102960004FF0FF301A607047B0020020FEE7000011
:10297000F8B500BFF8BC08BC9E467047F8B500BF6C
:08298000F8BC08BC9E4670473C
:1029880057656C636F6D6520746F0000536E616BE3
:10299800652067616D650000446972656374696FDD
:1029A8006E203A00202020000000000020000000D7
:1029B800736E616B652074616C6C3A2000000000D6
:1029C80047414D45200000004F5645522121210026
:1029D8005245454E54206D616C6C6F63207375636E
:1029E800636565646564002F6275696C642F676E42
:1029F800752D746F6F6C732D666F722D73746D33D4
:102A0800325F31322E332E72656C312E32303234D1
:102A1800303631322D313331352F7372632F6E6575
:102A2800776C69622F6E65776C69622F6C69626377
:102A38002F7374646C69622F72616E642E63002C4C
:102A48002066756E6374696F6E3A200061737365F2
:102A58007274696F6E2022257322206661696C6525
:102A6800643A2066696C6520222573222C206C69E3
:102A78006E65202564257325730A00232D302B20CD
:102A880000686C4C00656667454647003031323354
:102A980034353637383941424344454600303132BF
:102AA800333435363738396162636465660000004F
:042AB80055010008BC
:042ABC0031010008DC
:102AC0000100000055500000526967687400000062
:102AD0004C65667400000000446F776E00000000D3
:102AE0000404020000000000030000007401002044
:102AF000340000200000000074010020DC010020F0
:102B0000440200200000000000000000000000005F
:102B100000000000000000000000000000000000B5
:102B200000000000000000000000000000000000A5
:102B30000000000000000000000000000000000095
:04000005080017F1E7
:00000001FF
